{
  "contractName": "SupplyChainFactory",
  "abi": [
    {
      "inputs": [
        {
          "internalType": "uint256",
          "name": "",
          "type": "uint256"
        }
      ],
      "name": "deployedSupplyChain",
      "outputs": [
        {
          "internalType": "address",
          "name": "",
          "type": "address"
        }
      ],
      "stateMutability": "view",
      "type": "function",
      "constant": true
    },
    {
      "inputs": [
        {
          "internalType": "string",
          "name": "_supplyChainTitle",
          "type": "string"
        }
      ],
      "name": "createSupplyChain",
      "outputs": [],
      "stateMutability": "nonpayable",
      "type": "function"
    },
    {
      "inputs": [],
      "name": "getDeployedSupplyChain",
      "outputs": [
        {
          "internalType": "address[]",
          "name": "",
          "type": "address[]"
        }
      ],
      "stateMutability": "view",
      "type": "function",
      "constant": true
    }
  ],
  "bytecode": "0x608060405234801561001057600080fd5b506126d2806100206000396000f3fe608060405234801561001057600080fd5b50600436106100415760003560e01c80635a6c28ec14610046578063f9af908c14610101578063fab57ffc14610160575b600080fd5b6100ff6004803603602081101561005c57600080fd5b810190808035906020019064010000000081111561007957600080fd5b82018360208201111561008b57600080fd5b803590602001918460018302840111640100000000831117156100ad57600080fd5b91908080601f016020809104026020016040519081016040528093929190818152602001838380828437600081840152601f19601f8201169050808301925050505050505091929192905050506101b8565b005b6101096102da565b6040518080602001828103825283818151815260200191508051906020019060200280838360005b8381101561014c578082015181840152602081019050610131565b505050509050019250505060405180910390f35b61018c6004803603602081101561017657600080fd5b8101908080359060200190929190505050610368565b604051808273ffffffffffffffffffffffffffffffffffffffff16815260200191505060405180910390f35b600033826040516101c8906103a4565b808373ffffffffffffffffffffffffffffffffffffffff16815260200180602001828103825283818151815260200191508051906020019080838360005b83811015610221578082015181840152602081019050610206565b50505050905090810190601f16801561024e5780820380516001836020036101000a031916815260200191505b509350505050604051809103906000f080158015610270573d6000803e3d6000fd5b5090506000819080600181540180825580915050600190039060005260206000200160009091909190916101000a81548173ffffffffffffffffffffffffffffffffffffffff021916908373ffffffffffffffffffffffffffffffffffffffff1602179055505050565b6060600080548060200260200160405190810160405280929190818152602001828054801561035e57602002820191906000526020600020905b8160009054906101000a900473ffffffffffffffffffffffffffffffffffffffff1673ffffffffffffffffffffffffffffffffffffffff1681526020019060010190808311610314575b5050505050905090565b6000818154811061037557fe5b906000526020600020016000915054906101000a900473ffffffffffffffffffffffffffffffffffffffff1681565b6122eb806103b28339019056fe60806040523480156200001157600080fd5b50604051620022eb380380620022eb833981810160405260408110156200003757600080fd5b8101908080519060200190929190805160405193929190846401000000008211156200006257600080fd5b838201915060208201858111156200007957600080fd5b82518660018202830111640100000000821117156200009757600080fd5b8083526020830192505050908051906020019080838360005b83811015620000cd578082015181840152602081019050620000b0565b50505050905090810190601f168015620000fb5780820380516001836020036101000a031916815260200191505b5060405250505080600090805190602001906200011a92919062000164565b5081600160006101000a81548173ffffffffffffffffffffffffffffffffffffffff021916908373ffffffffffffffffffffffffffffffffffffffff16021790555050506200020a565b828054600181600116156101000203166002900490600052602060002090601f016020900481019282601f10620001a757805160ff1916838001178555620001d8565b82800160010185558215620001d8579182015b82811115620001d7578251825591602001919060010190620001ba565b5b509050620001e79190620001eb565b5090565b5b8082111562000206576000816000905550600101620001ec565b5090565b6120d1806200021a6000396000f3fe608060405234801561001057600080fd5b50600436106101375760003560e01c8063a1a69109116100b8578063d2d72dac1161007c578063d2d72dac146109b1578063dd3a62a2146109cf578063deb4ffb7146109ed578063edf3c35214610a0b578063f5b9427e146110ad578063fc9b5d141461113057610137565b8063a1a69109146106fd578063a56187001461071b578063bc1e8d1f14610725578063bd06c613146107a8578063c36e3bd0146107c657610137565b80637b681f31116100ff5780637b681f311461056e57806382d10b0d1461058c57806388561d67146105d8578063923e68211461069357806396ca4160146106df57610137565b806324d420b81461013c5780632df6b0cb1461015a5780634051ddac1461018e5780635105b02614610235578063550325b51461023f575b600080fd5b61014461114e565b6040518082815260200191505060405180910390f35b610162611154565b604051808273ffffffffffffffffffffffffffffffffffffffff16815260200191505060405180910390f35b61019661117a565b604051808481526020018373ffffffffffffffffffffffffffffffffffffffff16815260200180602001828103825283818151815260200191508051906020019080838360005b838110156101f85780820151818401526020810190506101dd565b50505050905090810190601f1680156102255780820380516001836020036101000a031916815260200191505b5094505050505060405180910390f35b61023d611251565b005b61026b6004803603602081101561025557600080fd5b81019080803590602001909291905050506112b9565b604051808060200180602001806020018060200180602001806020018060200188810388528f818151815260200191508051906020019080838360005b838110156102c35780820151818401526020810190506102a8565b50505050905090810190601f1680156102f05780820380516001836020036101000a031916815260200191505b5088810387528e818151815260200191508051906020019080838360005b8381101561032957808201518184015260208101905061030e565b50505050905090810190601f1680156103565780820380516001836020036101000a031916815260200191505b5088810386528d818151815260200191508051906020019080838360005b8381101561038f578082015181840152602081019050610374565b50505050905090810190601f1680156103bc5780820380516001836020036101000a031916815260200191505b5088810385528c818151815260200191508051906020019080838360005b838110156103f55780820151818401526020810190506103da565b50505050905090810190601f1680156104225780820380516001836020036101000a031916815260200191505b5088810384528b818151815260200191508051906020019080838360005b8381101561045b578082015181840152602081019050610440565b50505050905090810190601f1680156104885780820380516001836020036101000a031916815260200191505b5088810383528a818151815260200191508051906020019080838360005b838110156104c15780820151818401526020810190506104a6565b50505050905090810190601f1680156104ee5780820380516001836020036101000a031916815260200191505b50888103825289818151815260200191508051906020019080838360005b8381101561052757808201518184015260208101905061050c565b50505050905090810190601f1680156105545780820380516001836020036101000a031916815260200191505b509e50505050505050505050505050505060405180910390f35b610576611730565b6040518082815260200191505060405180910390f35b6105d6600480360360608110156105a257600080fd5b81019080803560ff169060200190929190803560ff169060200190929190803561ffff169060200190929190505050611736565b005b610691600480360360208110156105ee57600080fd5b810190808035906020019064010000000081111561060b57600080fd5b82018360208201111561061d57600080fd5b8035906020019184600183028401116401000000008311171561063f57600080fd5b91908080601f016020809104026020016040519081016040528093929190818152602001838380828437600081840152601f19601f8201169050808301925050505050505091929192905050506117bc565b005b6106dd600480360360608110156106a957600080fd5b81019080803560ff169060200190929190803560ff169060200190929190803561ffff16906020019092919050505061183c565b005b6106e76118c2565b6040518082815260200191505060405180910390f35b6107056118c8565b6040518082815260200191505060405180910390f35b6107236118ce565b005b61072d611936565b6040518080602001828103825283818151815260200191508051906020019080838360005b8381101561076d578082015181840152602081019050610752565b50505050905090810190601f16801561079a5780820380516001836020036101000a031916815260200191505b509250505060405180910390f35b6107b06119d4565b6040518082815260200191505060405180910390f35b6107f2600480360360208110156107dc57600080fd5b81019080803590602001909291905050506119da565b6040518080602001806020018060200180602001858103855289818151815260200191508051906020019080838360005b8381101561083e578082015181840152602081019050610823565b50505050905090810190601f16801561086b5780820380516001836020036101000a031916815260200191505b50858103845288818151815260200191508051906020019080838360005b838110156108a4578082015181840152602081019050610889565b50505050905090810190601f1680156108d15780820380516001836020036101000a031916815260200191505b50858103835287818151815260200191508051906020019080838360005b8381101561090a5780820151818401526020810190506108ef565b50505050905090810190601f1680156109375780820380516001836020036101000a031916815260200191505b50858103825286818151815260200191508051906020019080838360005b83811015610970578082015181840152602081019050610955565b50505050905090810190601f16801561099d5780820380516001836020036101000a031916815260200191505b509850505050505050505060405180910390f35b6109b9611c77565b6040518082815260200191505060405180910390f35b6109d7611c7d565b6040518082815260200191505060405180910390f35b6109f5611c83565b6040518082815260200191505060405180910390f35b6110ab6004803603610160811015610a2257600080fd5b8101908080359060200190640100000000811115610a3f57600080fd5b820183602082011115610a5157600080fd5b80359060200191846001830284011164010000000083111715610a7357600080fd5b91908080601f016020809104026020016040519081016040528093929190818152602001838380828437600081840152601f19601f82011690508083019250505050505050919291929080359060200190640100000000811115610ad657600080fd5b820183602082011115610ae857600080fd5b80359060200191846001830284011164010000000083111715610b0a57600080fd5b91908080601f016020809104026020016040519081016040528093929190818152602001838380828437600081840152601f19601f82011690508083019250505050505050919291929080359060200190640100000000811115610b6d57600080fd5b820183602082011115610b7f57600080fd5b80359060200191846001830284011164010000000083111715610ba157600080fd5b91908080601f016020809104026020016040519081016040528093929190818152602001838380828437600081840152601f19601f82011690508083019250505050505050919291929080359060200190640100000000811115610c0457600080fd5b820183602082011115610c1657600080fd5b80359060200191846001830284011164010000000083111715610c3857600080fd5b91908080601f016020809104026020016040519081016040528093929190818152602001838380828437600081840152601f19601f82011690508083019250505050505050919291929080359060200190640100000000811115610c9b57600080fd5b820183602082011115610cad57600080fd5b80359060200191846001830284011164010000000083111715610ccf57600080fd5b91908080601f016020809104026020016040519081016040528093929190818152602001838380828437600081840152601f19601f82011690508083019250505050505050919291929080359060200190640100000000811115610d3257600080fd5b820183602082011115610d4457600080fd5b80359060200191846001830284011164010000000083111715610d6657600080fd5b91908080601f016020809104026020016040519081016040528093929190818152602001838380828437600081840152601f19601f82011690508083019250505050505050919291929080359060200190640100000000811115610dc957600080fd5b820183602082011115610ddb57600080fd5b80359060200191846001830284011164010000000083111715610dfd57600080fd5b91908080601f016020809104026020016040519081016040528093929190818152602001838380828437600081840152601f19601f82011690508083019250505050505050919291929080359060200190640100000000811115610e6057600080fd5b820183602082011115610e7257600080fd5b80359060200191846001830284011164010000000083111715610e9457600080fd5b91908080601f016020809104026020016040519081016040528093929190818152602001838380828437600081840152601f19601f82011690508083019250505050505050919291929080359060200190640100000000811115610ef757600080fd5b820183602082011115610f0957600080fd5b80359060200191846001830284011164010000000083111715610f2b57600080fd5b91908080601f016020809104026020016040519081016040528093929190818152602001838380828437600081840152601f19601f82011690508083019250505050505050919291929080359060200190640100000000811115610f8e57600080fd5b820183602082011115610fa057600080fd5b80359060200191846001830284011164010000000083111715610fc257600080fd5b91908080601f016020809104026020016040519081016040528093929190818152602001838380828437600081840152601f19601f8201169050808301925050505050505091929192908035906020019064010000000081111561102557600080fd5b82018360208201111561103757600080fd5b8035906020019184600183028401116401000000008311171561105957600080fd5b91908080601f016020809104026020016040519081016040528093929190818152602001838380828437600081840152601f19601f820116905080830192505050505050509192919290505050611c89565b005b6110b5611ef5565b6040518080602001828103825283818151815260200191508051906020019080838360005b838110156110f55780820151818401526020810190506110da565b50505050905090810190601f1680156111225780820380516001836020036101000a031916815260200191505b509250505060405180910390f35b611138611f93565b6040518082815260200191505060405180910390f35b600b5481565b600160009054906101000a900473ffffffffffffffffffffffffffffffffffffffff1681565b6000806060600c80549050600160009054906101000a900473ffffffffffffffffffffffffffffffffffffffff166000808054600181600116156101000203166002900480601f01602080910402602001604051908101604052809291908181526020018280546001816001161561010002031660029004801561123f5780601f106112145761010080835404028352916020019161123f565b820191906000526020600020905b81548152906001019060200180831161122257829003601f168201915b50505050509050925092509250909192565b600160009054906101000a900473ffffffffffffffffffffffffffffffffffffffff1673ffffffffffffffffffffffffffffffffffffffff163373ffffffffffffffffffffffffffffffffffffffff16146112ab57600080fd5b600c80549050600381905550565b600c81815481106112c657fe5b9060005260206000209060070201600091509050806000018054600181600116156101000203166002900480601f0160208091040260200160405190810160405280929190818152602001828054600181600116156101000203166002900480156113725780601f1061134757610100808354040283529160200191611372565b820191906000526020600020905b81548152906001019060200180831161135557829003601f168201915b505050505090806001018054600181600116156101000203166002900480601f0160208091040260200160405190810160405280929190818152602001828054600181600116156101000203166002900480156114105780601f106113e557610100808354040283529160200191611410565b820191906000526020600020905b8154815290600101906020018083116113f357829003601f168201915b505050505090806002018054600181600116156101000203166002900480601f0160208091040260200160405190810160405280929190818152602001828054600181600116156101000203166002900480156114ae5780601f10611483576101008083540402835291602001916114ae565b820191906000526020600020905b81548152906001019060200180831161149157829003601f168201915b505050505090806003018054600181600116156101000203166002900480601f01602080910402602001604051908101604052809291908181526020018280546001816001161561010002031660029004801561154c5780601f106115215761010080835404028352916020019161154c565b820191906000526020600020905b81548152906001019060200180831161152f57829003601f168201915b505050505090806004018054600181600116156101000203166002900480601f0160208091040260200160405190810160405280929190818152602001828054600181600116156101000203166002900480156115ea5780601f106115bf576101008083540402835291602001916115ea565b820191906000526020600020905b8154815290600101906020018083116115cd57829003601f168201915b505050505090806005018054600181600116156101000203166002900480601f0160208091040260200160405190810160405280929190818152602001828054600181600116156101000203166002900480156116885780601f1061165d57610100808354040283529160200191611688565b820191906000526020600020905b81548152906001019060200180831161166b57829003601f168201915b505050505090806006018054600181600116156101000203166002900480601f0160208091040260200160405190810160405280929190818152602001828054600181600116156101000203166002900480156117265780601f106116fb57610100808354040283529160200191611726565b820191906000526020600020905b81548152906001019060200180831161170957829003601f168201915b5050505050905087565b60055481565b600160009054906101000a900473ffffffffffffffffffffffffffffffffffffffff1673ffffffffffffffffffffffffffffffffffffffff163373ffffffffffffffffffffffffffffffffffffffff161461179057600080fd5b8260ff166006819055508160ff166007819055508061ffff166008819055506117b76118ce565b505050565b600160009054906101000a900473ffffffffffffffffffffffffffffffffffffffff1673ffffffffffffffffffffffffffffffffffffffff163373ffffffffffffffffffffffffffffffffffffffff161461181657600080fd5b806004908051906020019061182c929190611f99565b50600c8054905060058190555050565b600160009054906101000a900473ffffffffffffffffffffffffffffffffffffffff1673ffffffffffffffffffffffffffffffffffffffff163373ffffffffffffffffffffffffffffffffffffffff161461189657600080fd5b8260ff166009819055508160ff16600a819055508061ffff16600b819055506118bd611251565b505050565b60025481565b60065481565b600160009054906101000a900473ffffffffffffffffffffffffffffffffffffffff1673ffffffffffffffffffffffffffffffffffffffff163373ffffffffffffffffffffffffffffffffffffffff161461192857600080fd5b600c80549050600281905550565b60048054600181600116156101000203166002900480601f0160208091040260200160405190810160405280929190818152602001828054600181600116156101000203166002900480156119cc5780601f106119a1576101008083540402835291602001916119cc565b820191906000526020600020905b8154815290600101906020018083116119af57829003601f168201915b505050505081565b60085481565b600d81815481106119e757fe5b9060005260206000209060040201600091509050806000018054600181600116156101000203166002900480601f016020809104026020016040519081016040528092919081815260200182805460018160011615610100020316600290048015611a935780601f10611a6857610100808354040283529160200191611a93565b820191906000526020600020905b815481529060010190602001808311611a7657829003601f168201915b505050505090806001018054600181600116156101000203166002900480601f016020809104026020016040519081016040528092919081815260200182805460018160011615610100020316600290048015611b315780601f10611b0657610100808354040283529160200191611b31565b820191906000526020600020905b815481529060010190602001808311611b1457829003601f168201915b505050505090806002018054600181600116156101000203166002900480601f016020809104026020016040519081016040528092919081815260200182805460018160011615610100020316600290048015611bcf5780601f10611ba457610100808354040283529160200191611bcf565b820191906000526020600020905b815481529060010190602001808311611bb257829003601f168201915b505050505090806003018054600181600116156101000203166002900480601f016020809104026020016040519081016040528092919081815260200182805460018160011615610100020316600290048015611c6d5780601f10611c4257610100808354040283529160200191611c6d565b820191906000526020600020905b815481529060010190602001808311611c5057829003601f168201915b5050505050905084565b600a5481565b60095481565b60075481565b600160009054906101000a900473ffffffffffffffffffffffffffffffffffffffff1673ffffffffffffffffffffffffffffffffffffffff163373ffffffffffffffffffffffffffffffffffffffff1614611ce357600080fd5b611ceb612019565b6040518060e001604052808d81526020018c81526020018b81526020018a8152602001898152602001888152602001878152509050600c8190806001815401808255809150506001900390600052602060002090600702016000909190919091506000820151816000019080519060200190611d68929190611f99565b506020820151816001019080519060200190611d85929190611f99565b506040820151816002019080519060200190611da2929190611f99565b506060820151816003019080519060200190611dbf929190611f99565b506080820151816004019080519060200190611ddc929190611f99565b5060a0820151816005019080519060200190611df9929190611f99565b5060c0820151816006019080519060200190611e16929190611f99565b505050611e21612056565b6040518060800160405280878152602001868152602001858152602001848152509050600d8190806001815401808255809150506001900390600052602060002090600402016000909190919091506000820151816000019080519060200190611e8c929190611f99565b506020820151816001019080519060200190611ea9929190611f99565b506040820151816002019080519060200190611ec6929190611f99565b506060820151816003019080519060200190611ee3929190611f99565b50505050505050505050505050505050565b60008054600181600116156101000203166002900480601f016020809104026020016040519081016040528092919081815260200182805460018160011615610100020316600290048015611f8b5780601f10611f6057610100808354040283529160200191611f8b565b820191906000526020600020905b815481529060010190602001808311611f6e57829003601f168201915b505050505081565b60035481565b828054600181600116156101000203166002900490600052602060002090601f016020900481019282601f10611fda57805160ff1916838001178555612008565b82800160010185558215612008579182015b82811115612007578251825591602001919060010190611fec565b5b509050612015919061207e565b5090565b6040518060e00160405280606081526020016060815260200160608152602001606081526020016060815260200160608152602001606081525090565b6040518060800160405280606081526020016060815260200160608152602001606081525090565b5b8082111561209757600081600090555060010161207f565b509056fea2646970667358221220598880962f8138a98268f1890fa657a5b7393105687df24501f1cd1b29e3015b64736f6c63430007000033a2646970667358221220b1a17d7cea9bbdce9c4b43b48fb5f06a5041901c689cadadd291334d4ae2b42164736f6c63430007000033",
  "immutableReferences": {},
  "source": "// SPDX-License-Identifier: GPL-3.0\r\npragma solidity >=0.7.0 <0.9.0;\r\n\r\ncontract SupplyChainFactory{\r\n    \r\n    address[] public deployedSupplyChain;\r\n\r\n    function createSupplyChain( string memory _supplyChainTitle ) public {\r\n        FoodSupplyChain newSupplyChain = new FoodSupplyChain(   msg.sender, \r\n                                                                 _supplyChainTitle );\r\n\r\n        deployedSupplyChain.push( address(newSupplyChain) );\r\n    }\r\n    \r\n    function getDeployedSupplyChain() public view returns( address[] memory ){\r\n        return deployedSupplyChain;\r\n    }\r\n}\r\n\r\ncontract FoodSupplyChain{\r\n    \r\n    string public supplyChainTitle;\r\n    address payable public manufactureAddress;\r\n    uint public productExpiredDateInsertedOnChain;\r\n    uint public productArrivalDateInsertedOnChain;\r\n    string public madeWith;\r\n    uint public madeWithInsertedOnChain;\r\n    \r\n    uint public productExpiredDay;\r\n    uint public productExpiredMonth;\r\n    uint public productExpiredYear;\r\n    \r\n    uint public productArrivalDay;\r\n    uint public productArrivalMonth;\r\n    uint public productArrivalYear;\r\n\r\n    struct Chain{\r\n        string chainName;\r\n        string productName;\r\n        string productImageLink;\r\n        string ProductImageInformation;\r\n        string chainLocation;\r\n        string tagName;\r\n        string tagInformation;\r\n    }\r\n    Chain[] public chains;\r\n    \r\n    struct CompanyInformation{\r\n        string madeByCompanyName;\r\n        string madeByCompanyLogoLink;\r\n        string madeByCompanyInformation;\r\n        string madeByCompanyLocation;\r\n    }\r\n    CompanyInformation[] public companyInformations;\r\n    \r\n    modifier restrictedOnlyForManufacture(){\r\n        require( msg.sender == manufactureAddress );\r\n        _;\r\n    }\r\n\r\n    constructor(    address manager, \r\n                    string memory _supplyChainTitle \r\n    ){\r\n        supplyChainTitle = _supplyChainTitle;\r\n        manufactureAddress = payable( manager );\r\n    }\r\n    \r\n    /*\r\n        Insert data by Manufacture \r\n    */\r\n    function createChain (    \r\n                           \r\n                            string memory _chainName,\r\n                            string memory _productName,\r\n                            string memory _productImageLink,\r\n                            string memory _ProductImageInforrmation,\r\n                            string memory _chainLocation,\r\n                            string memory _tagName,\r\n                            string memory _tagInformation,\r\n                            string memory _madeByCompanyName,\r\n                            string memory _madeByCompanyLogoLink,\r\n                            string memory _madeByCompanyInformation,\r\n                            string memory _madeByCompanyLocation\r\n                            \r\n    ) public restrictedOnlyForManufacture {\r\n        \r\n        Chain memory newChain = Chain({\r\n            chainName: _chainName,\r\n            productName: _productName,\r\n            productImageLink: _productImageLink,\r\n            ProductImageInformation: _ProductImageInforrmation,\r\n            chainLocation: _chainLocation,\r\n            tagName: _tagName,\r\n            tagInformation: _tagInformation\r\n        });\r\n        \r\n        chains.push( newChain );\r\n        \r\n        CompanyInformation memory newCompanyInformation = CompanyInformation({\r\n            madeByCompanyName: _madeByCompanyName,\r\n            madeByCompanyLogoLink: _madeByCompanyLogoLink,\r\n            madeByCompanyInformation: _madeByCompanyInformation,\r\n            madeByCompanyLocation: _madeByCompanyLocation\r\n        });\r\n        \r\n        companyInformations.push( newCompanyInformation );\r\n    }\r\n    \r\n    function insertMadeWith( string memory _madeWith ) public restrictedOnlyForManufacture {\r\n        madeWith = _madeWith;\r\n        madeWithInsertedOnChain = chains.length;\r\n    }\r\n    \r\n    function insertProductExpiredDate(\r\n         uint8 day,\r\n         uint8 month,\r\n         uint16 year\r\n    ) public restrictedOnlyForManufacture {\r\n        \r\n        productExpiredDay = day;\r\n        productExpiredMonth = month;\r\n        productExpiredYear =  year;\r\n        setProductExpiredDateOnChain();\r\n    }\r\n    \r\n    function insertProductArrivalDate(\r\n         uint8 day,\r\n         uint8 month,\r\n         uint16 year\r\n    ) public restrictedOnlyForManufacture {\r\n        productArrivalDay = day;\r\n        productArrivalMonth = month;\r\n        productArrivalYear =  year;\r\n        setProductArrivalDateOnChain();\r\n    }\r\n\r\n    function setProductExpiredDateOnChain() public restrictedOnlyForManufacture {\r\n        productExpiredDateInsertedOnChain = chains.length;\r\n    }\r\n\r\n    function setProductArrivalDateOnChain() public restrictedOnlyForManufacture {\r\n        productArrivalDateInsertedOnChain = chains.length;\r\n    }\r\n\r\n    function getSummary() public view returns(  uint,\r\n                                                address,\r\n                                                string memory\r\n    ){\r\n        return(\r\n            chains.length,\r\n            manufactureAddress,\r\n            supplyChainTitle\r\n        );\r\n    }\r\n\r\n    /*\r\n        Destroy Contract by Manufacture\r\n    */\r\n    /*function destroyContract() public restrictedOnlyForManufacture{\r\n        //\r\n        //    sending all funds to the manager public account \r\n        //\r\n        selfdestruct( manufactureAddress );\r\n    }*/\r\n}",
  "sourcePath": "E:/Food-Chain-Project/contracts/FoodSupplyChain.sol",
  "compiler": {
    "name": "solc",
    "version": "0.7.0+commit.9e61f92b.Emscripten.clang"
  },
  "schemaVersion": "3.4.1",
  "updatedAt": "2021-07-30T02:00:00.354Z",
  "networkType": "ethereum",
  "devdoc": {
    "kind": "dev",
    "methods": {},
    "version": 1
  },
  "userdoc": {
    "kind": "user",
    "methods": {},
    "version": 1
  }
}